{
  "_format": "hh-sol-artifact-1",
  "contractName": "MyEpicNFT",
  "sourceName": "contracts/MyEpicNFT.sol",
  "abi": [
    {
      "inputs": [],
      "stateMutability": "nonpayable",
      "type": "constructor"
    },
    {
      "anonymous": false,
      "inputs": [
        {
          "indexed": true,
          "internalType": "address",
          "name": "owner",
          "type": "address"
        },
        {
          "indexed": true,
          "internalType": "address",
          "name": "approved",
          "type": "address"
        },
        {
          "indexed": true,
          "internalType": "uint256",
          "name": "tokenId",
          "type": "uint256"
        }
      ],
      "name": "Approval",
      "type": "event"
    },
    {
      "anonymous": false,
      "inputs": [
        {
          "indexed": true,
          "internalType": "address",
          "name": "owner",
          "type": "address"
        },
        {
          "indexed": true,
          "internalType": "address",
          "name": "operator",
          "type": "address"
        },
        {
          "indexed": false,
          "internalType": "bool",
          "name": "approved",
          "type": "bool"
        }
      ],
      "name": "ApprovalForAll",
      "type": "event"
    },
    {
      "anonymous": false,
      "inputs": [
        {
          "indexed": false,
          "internalType": "address",
          "name": "sender",
          "type": "address"
        },
        {
          "indexed": false,
          "internalType": "uint256",
          "name": "tokenId",
          "type": "uint256"
        }
      ],
      "name": "NewEpicNFTMinted",
      "type": "event"
    },
    {
      "anonymous": false,
      "inputs": [
        {
          "indexed": true,
          "internalType": "address",
          "name": "from",
          "type": "address"
        },
        {
          "indexed": true,
          "internalType": "address",
          "name": "to",
          "type": "address"
        },
        {
          "indexed": true,
          "internalType": "uint256",
          "name": "tokenId",
          "type": "uint256"
        }
      ],
      "name": "Transfer",
      "type": "event"
    },
    {
      "inputs": [
        {
          "internalType": "address",
          "name": "to",
          "type": "address"
        },
        {
          "internalType": "uint256",
          "name": "tokenId",
          "type": "uint256"
        }
      ],
      "name": "approve",
      "outputs": [],
      "stateMutability": "nonpayable",
      "type": "function"
    },
    {
      "inputs": [
        {
          "internalType": "address",
          "name": "owner",
          "type": "address"
        }
      ],
      "name": "balanceOf",
      "outputs": [
        {
          "internalType": "uint256",
          "name": "",
          "type": "uint256"
        }
      ],
      "stateMutability": "view",
      "type": "function"
    },
    {
      "inputs": [
        {
          "internalType": "uint256",
          "name": "tokenId",
          "type": "uint256"
        }
      ],
      "name": "getApproved",
      "outputs": [
        {
          "internalType": "address",
          "name": "",
          "type": "address"
        }
      ],
      "stateMutability": "view",
      "type": "function"
    },
    {
      "inputs": [],
      "name": "getTotalNFTsMintedSoFar",
      "outputs": [
        {
          "internalType": "uint256",
          "name": "",
          "type": "uint256"
        }
      ],
      "stateMutability": "view",
      "type": "function"
    },
    {
      "inputs": [
        {
          "internalType": "address",
          "name": "owner",
          "type": "address"
        },
        {
          "internalType": "address",
          "name": "operator",
          "type": "address"
        }
      ],
      "name": "isApprovedForAll",
      "outputs": [
        {
          "internalType": "bool",
          "name": "",
          "type": "bool"
        }
      ],
      "stateMutability": "view",
      "type": "function"
    },
    {
      "inputs": [],
      "name": "makeAnEpicNFT",
      "outputs": [],
      "stateMutability": "nonpayable",
      "type": "function"
    },
    {
      "inputs": [],
      "name": "name",
      "outputs": [
        {
          "internalType": "string",
          "name": "",
          "type": "string"
        }
      ],
      "stateMutability": "view",
      "type": "function"
    },
    {
      "inputs": [
        {
          "internalType": "uint256",
          "name": "tokenId",
          "type": "uint256"
        }
      ],
      "name": "ownerOf",
      "outputs": [
        {
          "internalType": "address",
          "name": "",
          "type": "address"
        }
      ],
      "stateMutability": "view",
      "type": "function"
    },
    {
      "inputs": [
        {
          "internalType": "uint256",
          "name": "tokenId",
          "type": "uint256"
        }
      ],
      "name": "pickRandomFirstWord",
      "outputs": [
        {
          "internalType": "string",
          "name": "",
          "type": "string"
        }
      ],
      "stateMutability": "view",
      "type": "function"
    },
    {
      "inputs": [
        {
          "internalType": "uint256",
          "name": "tokenId",
          "type": "uint256"
        }
      ],
      "name": "pickRandomSecondWord",
      "outputs": [
        {
          "internalType": "string",
          "name": "",
          "type": "string"
        }
      ],
      "stateMutability": "view",
      "type": "function"
    },
    {
      "inputs": [
        {
          "internalType": "uint256",
          "name": "tokenId",
          "type": "uint256"
        }
      ],
      "name": "pickRandomThirdWord",
      "outputs": [
        {
          "internalType": "string",
          "name": "",
          "type": "string"
        }
      ],
      "stateMutability": "view",
      "type": "function"
    },
    {
      "inputs": [
        {
          "internalType": "address",
          "name": "from",
          "type": "address"
        },
        {
          "internalType": "address",
          "name": "to",
          "type": "address"
        },
        {
          "internalType": "uint256",
          "name": "tokenId",
          "type": "uint256"
        }
      ],
      "name": "safeTransferFrom",
      "outputs": [],
      "stateMutability": "nonpayable",
      "type": "function"
    },
    {
      "inputs": [
        {
          "internalType": "address",
          "name": "from",
          "type": "address"
        },
        {
          "internalType": "address",
          "name": "to",
          "type": "address"
        },
        {
          "internalType": "uint256",
          "name": "tokenId",
          "type": "uint256"
        },
        {
          "internalType": "bytes",
          "name": "_data",
          "type": "bytes"
        }
      ],
      "name": "safeTransferFrom",
      "outputs": [],
      "stateMutability": "nonpayable",
      "type": "function"
    },
    {
      "inputs": [
        {
          "internalType": "address",
          "name": "operator",
          "type": "address"
        },
        {
          "internalType": "bool",
          "name": "approved",
          "type": "bool"
        }
      ],
      "name": "setApprovalForAll",
      "outputs": [],
      "stateMutability": "nonpayable",
      "type": "function"
    },
    {
      "inputs": [
        {
          "internalType": "bytes4",
          "name": "interfaceId",
          "type": "bytes4"
        }
      ],
      "name": "supportsInterface",
      "outputs": [
        {
          "internalType": "bool",
          "name": "",
          "type": "bool"
        }
      ],
      "stateMutability": "view",
      "type": "function"
    },
    {
      "inputs": [],
      "name": "symbol",
      "outputs": [
        {
          "internalType": "string",
          "name": "",
          "type": "string"
        }
      ],
      "stateMutability": "view",
      "type": "function"
    },
    {
      "inputs": [
        {
          "internalType": "uint256",
          "name": "tokenId",
          "type": "uint256"
        }
      ],
      "name": "tokenURI",
      "outputs": [
        {
          "internalType": "string",
          "name": "",
          "type": "string"
        }
      ],
      "stateMutability": "view",
      "type": "function"
    },
    {
      "inputs": [
        {
          "internalType": "address",
          "name": "from",
          "type": "address"
        },
        {
          "internalType": "address",
          "name": "to",
          "type": "address"
        },
        {
          "internalType": "uint256",
          "name": "tokenId",
          "type": "uint256"
        }
      ],
      "name": "transferFrom",
      "outputs": [],
      "stateMutability": "nonpayable",
      "type": "function"
    }
  ],
  "bytecode": "0x608060405260405180610160016040528061012f81526020016200444161012f9139600890805190602001906200003892919062000683565b506040518060c001604052806040518060400160405280600381526020017f42656e000000000000000000000000000000000000000000000000000000000081525081526020016040518060400160405280600a81526020017f576f6f647065636b65720000000000000000000000000000000000000000000081525081526020016040518060400160405280600681526020017f507269736861000000000000000000000000000000000000000000000000000081525081526020016040518060400160405280600581526020017f526f62696e00000000000000000000000000000000000000000000000000000081525081526020016040518060400160405280600781526020017f436974697a656e0000000000000000000000000000000000000000000000000081525081526020016040518060400160405280600781526020017f436869636b656e000000000000000000000000000000000000000000000000008152508152506009906006620001b692919062000714565b506040518060c001604052806040518060400160405280600581526020017f526564647900000000000000000000000000000000000000000000000000000081525081526020016040518060400160405280600481526020017f54616c690000000000000000000000000000000000000000000000000000000081525081526020016040518060400160405280600481526020017f466565640000000000000000000000000000000000000000000000000000000081525081526020016040518060400160405280600881526020017f4a6f6e617468616e00000000000000000000000000000000000000000000000081525081526020016040518060400160405280600481526020017f57696e670000000000000000000000000000000000000000000000000000000081525081526020016040518060400160405280600581526020017f536f636b73000000000000000000000000000000000000000000000000000000815250815250600a9060066200033492919062000714565b506040518060c001604052806040518060400160405280600581526020017f477265656e00000000000000000000000000000000000000000000000000000081525081526020016040518060400160405280600581526020017f4a6f6c6c7900000000000000000000000000000000000000000000000000000081525081526020016040518060400160405280600681526020017f44696d706c65000000000000000000000000000000000000000000000000000081525081526020016040518060400160405280600981526020017f436f6e717565726572000000000000000000000000000000000000000000000081525081526020016040518060400160405280600681526020017f44696e676c65000000000000000000000000000000000000000000000000000081525081526020016040518060400160405280600381526020017f4261740000000000000000000000000000000000000000000000000000000000815250815250600b906006620004b292919062000714565b506005600d55348015620004c557600080fd5b506040518060400160405280600981526020017f5371756172654e465400000000000000000000000000000000000000000000008152506040518060400160405280600681526020017f535155415245000000000000000000000000000000000000000000000000000081525081600090805190602001906200054a92919062000683565b5080600190805190602001906200056392919062000683565b505050620005b16040518060400160405280601e81526020017f54686973206973206d79204e465420636f6e74726163742e20576f6168210000815250620005b760201b6200114c1760201c565b62000935565b6200065781604051602401620005ce919062000849565b6040516020818303038152906040527f41304fac000000000000000000000000000000000000000000000000000000007bffffffffffffffffffffffffffffffffffffffffffffffffffffffff19166020820180517bffffffffffffffffffffffffffffffffffffffffffffffffffffffff83818316178352505050506200065a60201b60201c565b50565b60008151905060006a636f6e736f6c652e6c6f679050602083016000808483855afa5050505050565b8280546200069190620008bf565b90600052602060002090601f016020900481019282620006b5576000855562000701565b82601f10620006d057805160ff191683800117855562000701565b8280016001018555821562000701579182015b8281111562000700578251825591602001919060010190620006e3565b5b5090506200071091906200077b565b5090565b82805482825590600052602060002090810192821562000768579160200282015b82811115620007675782518290805190602001906200075692919062000683565b509160200191906001019062000735565b5b5090506200077791906200079a565b5090565b5b80821115620007965760008160009055506001016200077c565b5090565b5b80821115620007be5760008181620007b49190620007c2565b506001016200079b565b5090565b508054620007d090620008bf565b6000825580601f10620007e4575062000805565b601f0160209004906000526020600020908101906200080491906200077b565b5b50565b600062000815826200086d565b62000821818562000878565b93506200083381856020860162000889565b6200083e8162000924565b840191505092915050565b6000602082019050818103600083015262000865818462000808565b905092915050565b600081519050919050565b600082825260208201905092915050565b60005b83811015620008a95780820151818401526020810190506200088c565b83811115620008b9576000848401525b50505050565b60006002820490506001821680620008d857607f821691505b60208210811415620008ef57620008ee620008f5565b5b50919050565b7f4e487b7100000000000000000000000000000000000000000000000000000000600052602260045260246000fd5b6000601f19601f8301169050919050565b613afc80620009456000396000f3fe608060405234801561001057600080fd5b50600436106101165760003560e01c806370a08231116100a2578063b88d4fde11610071578063b88d4fde14610305578063c575757a14610321578063c87b56dd14610351578063de9d132f14610381578063e985e9c51461038b57610116565b806370a082311461026b57806395d89b411461029b578063a22cb465146102b9578063b187301f146102d557610116565b8063095ea7b3116100e9578063095ea7b3146101b757806323b872dd146101d35780632de38d68146101ef57806342842e0e1461021f5780636352211e1461023b57610116565b806301ffc9a71461011b578063060475901461014b57806306fdde0314610169578063081812fc14610187575b600080fd5b61013560048036038101906101309190612578565b6103bb565b6040516101429190612ca5565b60405180910390f35b61015361049d565b6040516101609190612f40565b60405180910390f35b6101716104a7565b60405161017e9190612cc0565b60405180910390f35b6101a1600480360381019061019c91906125ca565b610539565b6040516101ae9190612c15565b60405180910390f35b6101d160048036038101906101cc919061253c565b6105be565b005b6101ed60048036038101906101e89190612436565b6106d6565b005b610209600480360381019061020491906125ca565b610736565b6040516102169190612cc0565b60405180910390f35b61023960048036038101906102349190612436565b610854565b005b610255600480360381019061025091906125ca565b610874565b6040516102629190612c15565b60405180910390f35b610285600480360381019061028091906123d1565b610926565b6040516102929190612f40565b60405180910390f35b6102a36109de565b6040516102b09190612cc0565b60405180910390f35b6102d360048036038101906102ce9190612500565b610a70565b005b6102ef60048036038101906102ea91906125ca565b610a86565b6040516102fc9190612cc0565b60405180910390f35b61031f600480360381019061031a9190612485565b610ba4565b005b61033b600480360381019061033691906125ca565b610c06565b6040516103489190612cc0565b60405180910390f35b61036b600480360381019061036691906125ca565b610d24565b6040516103789190612cc0565b60405180910390f35b610389610e76565b005b6103a560048036038101906103a091906123fa565b6110b8565b6040516103b29190612ca5565b60405180910390f35b60007f80ac58cd000000000000000000000000000000000000000000000000000000007bffffffffffffffffffffffffffffffffffffffffffffffffffffffff1916827bffffffffffffffffffffffffffffffffffffffffffffffffffffffff1916148061048657507f5b5e139f000000000000000000000000000000000000000000000000000000007bffffffffffffffffffffffffffffffffffffffffffffffffffffffff1916827bffffffffffffffffffffffffffffffffffffffffffffffffffffffff1916145b806104965750610495826111e5565b5b9050919050565b6000600c54905090565b6060600080546104b6906131d4565b80601f01602080910402602001604051908101604052809291908181526020018280546104e2906131d4565b801561052f5780601f106105045761010080835404028352916020019161052f565b820191906000526020600020905b81548152906001019060200180831161051257829003601f168201915b5050505050905090565b60006105448261124f565b610583576040517f08c379a000000000000000000000000000000000000000000000000000000000815260040161057a90612ea0565b60405180910390fd5b6004600083815260200190815260200160002060009054906101000a900473ffffffffffffffffffffffffffffffffffffffff169050919050565b60006105c982610874565b90508073ffffffffffffffffffffffffffffffffffffffff168373ffffffffffffffffffffffffffffffffffffffff16141561063a576040517f08c379a000000000000000000000000000000000000000000000000000000000815260040161063190612f00565b60405180910390fd5b8073ffffffffffffffffffffffffffffffffffffffff166106596112bb565b73ffffffffffffffffffffffffffffffffffffffff1614806106885750610687816106826112bb565b6110b8565b5b6106c7576040517f08c379a00000000000000000000000000000000000000000000000000000000081526004016106be90612de0565b60405180910390fd5b6106d183836112c3565b505050565b6106e76106e16112bb565b8261137c565b610726576040517f08c379a000000000000000000000000000000000000000000000000000000000815260040161071d90612f20565b60405180910390fd5b61073183838361145a565b505050565b6060600061076a610746846116c1565b6040516020016107569190612bd1565b60405160208183030381529060405261186e565b90506009805490508161077d9190613280565b9050600981815481106107b9577f4e487b7100000000000000000000000000000000000000000000000000000000600052603260045260246000fd5b9060005260206000200180546107ce906131d4565b80601f01602080910402602001604051908101604052809291908181526020018280546107fa906131d4565b80156108475780601f1061081c57610100808354040283529160200191610847565b820191906000526020600020905b81548152906001019060200180831161082a57829003601f168201915b5050505050915050919050565b61086f83838360405180602001604052806000815250610ba4565b505050565b6000806002600084815260200190815260200160002060009054906101000a900473ffffffffffffffffffffffffffffffffffffffff169050600073ffffffffffffffffffffffffffffffffffffffff168173ffffffffffffffffffffffffffffffffffffffff16141561091d576040517f08c379a000000000000000000000000000000000000000000000000000000000815260040161091490612e20565b60405180910390fd5b80915050919050565b60008073ffffffffffffffffffffffffffffffffffffffff168273ffffffffffffffffffffffffffffffffffffffff161415610997576040517f08c379a000000000000000000000000000000000000000000000000000000000815260040161098e90612e00565b60405180910390fd5b600360008373ffffffffffffffffffffffffffffffffffffffff1673ffffffffffffffffffffffffffffffffffffffff168152602001908152602001600020549050919050565b6060600180546109ed906131d4565b80601f0160208091040260200160405190810160405280929190818152602001828054610a19906131d4565b8015610a665780601f10610a3b57610100808354040283529160200191610a66565b820191906000526020600020905b815481529060010190602001808311610a4957829003601f168201915b5050505050905090565b610a82610a7b6112bb565b83836118a1565b5050565b60606000610aba610a96846116c1565b604051602001610aa69190612b6a565b60405160208183030381529060405261186e565b9050600a8054905081610acd9190613280565b9050600a8181548110610b09577f4e487b7100000000000000000000000000000000000000000000000000000000600052603260045260246000fd5b906000526020600020018054610b1e906131d4565b80601f0160208091040260200160405190810160405280929190818152602001828054610b4a906131d4565b8015610b975780601f10610b6c57610100808354040283529160200191610b97565b820191906000526020600020905b815481529060010190602001808311610b7a57829003601f168201915b5050505050915050919050565b610bb5610baf6112bb565b8361137c565b610bf4576040517f08c379a0000000000000000000000000000000000000000000000000000000008152600401610beb90612f20565b60405180910390fd5b610c0084848484611a0e565b50505050565b60606000610c3a610c16846116c1565b604051602001610c269190612b48565b60405160208183030381529060405261186e565b9050600b8054905081610c4d9190613280565b9050600b8181548110610c89577f4e487b7100000000000000000000000000000000000000000000000000000000600052603260045260246000fd5b906000526020600020018054610c9e906131d4565b80601f0160208091040260200160405190810160405280929190818152602001828054610cca906131d4565b8015610d175780601f10610cec57610100808354040283529160200191610d17565b820191906000526020600020905b815481529060010190602001808311610cfa57829003601f168201915b5050505050915050919050565b6060610d2f8261124f565b610d6e576040517f08c379a0000000000000000000000000000000000000000000000000000000008152600401610d6590612e80565b60405180910390fd5b6000600660008481526020019081526020016000208054610d8e906131d4565b80601f0160208091040260200160405190810160405280929190818152602001828054610dba906131d4565b8015610e075780601f10610ddc57610100808354040283529160200191610e07565b820191906000526020600020905b815481529060010190602001808311610dea57829003601f168201915b505050505090506000610e18611a6a565b9050600081511415610e2e578192505050610e71565b600082511115610e63578082604051602001610e4b929190612ac4565b60405160208183030381529060405292505050610e71565b610e6c84611a81565b925050505b919050565b600d54600c5410610ebc576040517f08c379a0000000000000000000000000000000000000000000000000000000008152600401610eb390612ee0565b60405180910390fd5b6000610ec86007611b28565b90506000610ed582610736565b90506000610ee283610a86565b90506000610eef84610c06565b90506000838383604051602001610f0893929190612ae8565b60405160208183030381529060405290506000600882604051602001610f2f929190612b19565b60405160208183030381529060405290506000610f7483610f4f84611b36565b604051602001610f60929190612b8c565b604051602081830303815290604052611b36565b9050600081604051602001610f899190612bf3565b6040516020818303038152906040529050610fd86040518060400160405280601581526020017f0a2d2d2d2d2d2d2d2d2d2d2d2d2d2d2d2d2d2d2d2d000000000000000000000081525061114c565b610fe18161114c565b61101f6040518060400160405280601581526020017f2d2d2d2d2d2d2d2d2d2d2d2d2d2d2d2d2d2d2d2d0a000000000000000000000081525061114c565b6110293389611cf4565b6110338882611d12565b61103d6007611d86565b611060604051806060016040528060258152602001613a62602591398933611d9c565b7febb98688741ffa4c7589bf325de30cf7becb63de567842e1ccdb6cb949fdc82c3389604051611091929190612c7c565b60405180910390a16001600c546110a89190613009565b600c819055505050505050505050565b6000600560008473ffffffffffffffffffffffffffffffffffffffff1673ffffffffffffffffffffffffffffffffffffffff16815260200190815260200160002060008373ffffffffffffffffffffffffffffffffffffffff1673ffffffffffffffffffffffffffffffffffffffff16815260200190815260200160002060009054906101000a900460ff16905092915050565b6111e2816040516024016111609190612cc0565b6040516020818303038152906040527f41304fac000000000000000000000000000000000000000000000000000000007bffffffffffffffffffffffffffffffffffffffffffffffffffffffff19166020820180517bffffffffffffffffffffffffffffffffffffffffffffffffffffffff8381831617835250505050611e3b565b50565b60007f01ffc9a7000000000000000000000000000000000000000000000000000000007bffffffffffffffffffffffffffffffffffffffffffffffffffffffff1916827bffffffffffffffffffffffffffffffffffffffffffffffffffffffff1916149050919050565b60008073ffffffffffffffffffffffffffffffffffffffff166002600084815260200190815260200160002060009054906101000a900473ffffffffffffffffffffffffffffffffffffffff1673ffffffffffffffffffffffffffffffffffffffff1614159050919050565b600033905090565b816004600083815260200190815260200160002060006101000a81548173ffffffffffffffffffffffffffffffffffffffff021916908373ffffffffffffffffffffffffffffffffffffffff160217905550808273ffffffffffffffffffffffffffffffffffffffff1661133683610874565b73ffffffffffffffffffffffffffffffffffffffff167f8c5be1e5ebec7d5bd14f71427d1e84f3dd0314c0f7b2291e5b200ac8c7c3b92560405160405180910390a45050565b60006113878261124f565b6113c6576040517f08c379a00000000000000000000000000000000000000000000000000000000081526004016113bd90612dc0565b60405180910390fd5b60006113d183610874565b90508073ffffffffffffffffffffffffffffffffffffffff168473ffffffffffffffffffffffffffffffffffffffff16148061144057508373ffffffffffffffffffffffffffffffffffffffff1661142884610539565b73ffffffffffffffffffffffffffffffffffffffff16145b80611451575061145081856110b8565b5b91505092915050565b8273ffffffffffffffffffffffffffffffffffffffff1661147a82610874565b73ffffffffffffffffffffffffffffffffffffffff16146114d0576040517f08c379a00000000000000000000000000000000000000000000000000000000081526004016114c790612d40565b60405180910390fd5b600073ffffffffffffffffffffffffffffffffffffffff168273ffffffffffffffffffffffffffffffffffffffff161415611540576040517f08c379a000000000000000000000000000000000000000000000000000000000815260040161153790612d80565b60405180910390fd5b61154b838383611e64565b6115566000826112c3565b6001600360008573ffffffffffffffffffffffffffffffffffffffff1673ffffffffffffffffffffffffffffffffffffffff16815260200190815260200160002060008282546115a691906130ea565b925050819055506001600360008473ffffffffffffffffffffffffffffffffffffffff1673ffffffffffffffffffffffffffffffffffffffff16815260200190815260200160002060008282546115fd9190613009565b92505081905550816002600083815260200190815260200160002060006101000a81548173ffffffffffffffffffffffffffffffffffffffff021916908373ffffffffffffffffffffffffffffffffffffffff160217905550808273ffffffffffffffffffffffffffffffffffffffff168473ffffffffffffffffffffffffffffffffffffffff167fddf252ad1be2c89b69c2b068fc378daa952ba7f163c4a11628f55a4df523b3ef60405160405180910390a46116bc838383611e69565b505050565b60606000821415611709576040518060400160405280600181526020017f30000000000000000000000000000000000000000000000000000000000000008152509050611869565b600082905060005b6000821461173b57808061172490613237565b915050600a82611734919061305f565b9150611711565b60008167ffffffffffffffff81111561177d577f4e487b7100000000000000000000000000000000000000000000000000000000600052604160045260246000fd5b6040519080825280601f01601f1916602001820160405280156117af5781602001600182028036833780820191505090505b5090505b60008514611862576001826117c891906130ea565b9150600a856117d79190613280565b60306117e39190613009565b60f81b81838151811061181f577f4e487b7100000000000000000000000000000000000000000000000000000000600052603260045260246000fd5b60200101907effffffffffffffffffffffffffffffffffffffffffffffffffffffffffffff1916908160001a905350600a8561185b919061305f565b94506117b3565b8093505050505b919050565b6000816040516020016118819190612aad565b6040516020818303038152906040528051906020012060001c9050919050565b8173ffffffffffffffffffffffffffffffffffffffff168373ffffffffffffffffffffffffffffffffffffffff161415611910576040517f08c379a000000000000000000000000000000000000000000000000000000000815260040161190790612da0565b60405180910390fd5b80600560008573ffffffffffffffffffffffffffffffffffffffff1673ffffffffffffffffffffffffffffffffffffffff16815260200190815260200160002060008473ffffffffffffffffffffffffffffffffffffffff1673ffffffffffffffffffffffffffffffffffffffff16815260200190815260200160002060006101000a81548160ff0219169083151502179055508173ffffffffffffffffffffffffffffffffffffffff168373ffffffffffffffffffffffffffffffffffffffff167f17307eab39ab6107e8899845ad3d59bd9653f200f220920489ca2b5937696c3183604051611a019190612ca5565b60405180910390a3505050565b611a1984848461145a565b611a2584848484611e6e565b611a64576040517f08c379a0000000000000000000000000000000000000000000000000000000008152600401611a5b90612d20565b60405180910390fd5b50505050565b606060405180602001604052806000815250905090565b6060611a8c8261124f565b611acb576040517f08c379a0000000000000000000000000000000000000000000000000000000008152600401611ac290612ec0565b60405180910390fd5b6000611ad5611a6a565b90506000815111611af55760405180602001604052806000815250611b20565b80611aff846116c1565b604051602001611b10929190612ac4565b6040516020818303038152906040525b915050919050565b600081600001549050919050565b60606000825190506000811415611b5f5760405180602001604052806000815250915050611cef565b60006003600283611b709190613009565b611b7a919061305f565b6004611b869190613090565b90506000602082611b979190613009565b67ffffffffffffffff811115611bd6577f4e487b7100000000000000000000000000000000000000000000000000000000600052604160045260246000fd5b6040519080825280601f01601f191660200182016040528015611c085781602001600182028036833780820191505090505b5090506000604051806060016040528060408152602001613a87604091399050600181016020830160005b86811015611cac5760038101905062ffffff818a015116603f8160121c168401518060081b905060ff603f83600c1c1686015116810190508060081b905060ff603f8360061c1686015116810190508060081b905060ff603f831686015116810190508060e01b90508084526004840193505050611c33565b506003860660018114611cc65760028114611cd657611ce1565b613d3d60f01b6002830352611ce1565b603d60f81b60018303525b508484525050819450505050505b919050565b611d0e828260405180602001604052806000815250612005565b5050565b611d1b8261124f565b611d5a576040517f08c379a0000000000000000000000000000000000000000000000000000000008152600401611d5190612e40565b60405180910390fd5b80600660008481526020019081526020016000209080519060200190611d8192919061225d565b505050565b6001816000016000828254019250508190555050565b611e36838383604051602401611db493929190612ce2565b6040516020818303038152906040527fe3849f79000000000000000000000000000000000000000000000000000000007bffffffffffffffffffffffffffffffffffffffffffffffffffffffff19166020820180517bffffffffffffffffffffffffffffffffffffffffffffffffffffffff8381831617835250505050611e3b565b505050565b60008151905060006a636f6e736f6c652e6c6f679050602083016000808483855afa5050505050565b505050565b505050565b6000611e8f8473ffffffffffffffffffffffffffffffffffffffff16612060565b15611ff8578373ffffffffffffffffffffffffffffffffffffffff1663150b7a02611eb86112bb565b8786866040518563ffffffff1660e01b8152600401611eda9493929190612c30565b602060405180830381600087803b158015611ef457600080fd5b505af1925050508015611f2557506040513d601f19601f82011682018060405250810190611f2291906125a1565b60015b611fa8573d8060008114611f55576040519150601f19603f3d011682016040523d82523d6000602084013e611f5a565b606091505b50600081511415611fa0576040517f08c379a0000000000000000000000000000000000000000000000000000000008152600401611f9790612d20565b60405180910390fd5b805181602001fd5b63150b7a0260e01b7bffffffffffffffffffffffffffffffffffffffffffffffffffffffff1916817bffffffffffffffffffffffffffffffffffffffffffffffffffffffff191614915050611ffd565b600190505b949350505050565b61200f8383612083565b61201c6000848484611e6e565b61205b576040517f08c379a000000000000000000000000000000000000000000000000000000000815260040161205290612d20565b60405180910390fd5b505050565b6000808273ffffffffffffffffffffffffffffffffffffffff163b119050919050565b600073ffffffffffffffffffffffffffffffffffffffff168273ffffffffffffffffffffffffffffffffffffffff1614156120f3576040517f08c379a00000000000000000000000000000000000000000000000000000000081526004016120ea90612e60565b60405180910390fd5b6120fc8161124f565b1561213c576040517f08c379a000000000000000000000000000000000000000000000000000000000815260040161213390612d60565b60405180910390fd5b61214860008383611e64565b6001600360008473ffffffffffffffffffffffffffffffffffffffff1673ffffffffffffffffffffffffffffffffffffffff16815260200190815260200160002060008282546121989190613009565b92505081905550816002600083815260200190815260200160002060006101000a81548173ffffffffffffffffffffffffffffffffffffffff021916908373ffffffffffffffffffffffffffffffffffffffff160217905550808273ffffffffffffffffffffffffffffffffffffffff16600073ffffffffffffffffffffffffffffffffffffffff167fddf252ad1be2c89b69c2b068fc378daa952ba7f163c4a11628f55a4df523b3ef60405160405180910390a461225960008383611e69565b5050565b828054612269906131d4565b90600052602060002090601f01602090048101928261228b57600085556122d2565b82601f106122a457805160ff19168380011785556122d2565b828001600101855582156122d2579182015b828111156122d15782518255916020019190600101906122b6565b5b5090506122df91906122e3565b5090565b5b808211156122fc5760008160009055506001016122e4565b5090565b600061231361230e84612f80565b612f5b565b90508281526020810184848401111561232b57600080fd5b612336848285613192565b509392505050565b60008135905061234d81613a05565b92915050565b60008135905061236281613a1c565b92915050565b60008135905061237781613a33565b92915050565b60008151905061238c81613a33565b92915050565b600082601f8301126123a357600080fd5b81356123b3848260208601612300565b91505092915050565b6000813590506123cb81613a4a565b92915050565b6000602082840312156123e357600080fd5b60006123f18482850161233e565b91505092915050565b6000806040838503121561240d57600080fd5b600061241b8582860161233e565b925050602061242c8582860161233e565b9150509250929050565b60008060006060848603121561244b57600080fd5b60006124598682870161233e565b935050602061246a8682870161233e565b925050604061247b868287016123bc565b9150509250925092565b6000806000806080858703121561249b57600080fd5b60006124a98782880161233e565b94505060206124ba8782880161233e565b93505060406124cb878288016123bc565b925050606085013567ffffffffffffffff8111156124e857600080fd5b6124f487828801612392565b91505092959194509250565b6000806040838503121561251357600080fd5b60006125218582860161233e565b925050602061253285828601612353565b9150509250929050565b6000806040838503121561254f57600080fd5b600061255d8582860161233e565b925050602061256e858286016123bc565b9150509250929050565b60006020828403121561258a57600080fd5b600061259884828501612368565b91505092915050565b6000602082840312156125b357600080fd5b60006125c18482850161237d565b91505092915050565b6000602082840312156125dc57600080fd5b60006125ea848285016123bc565b91505092915050565b6125fc8161311e565b82525050565b61260b81613130565b82525050565b600061261c82612fc6565b6126268185612fdc565b93506126368185602086016131a1565b61263f8161336d565b840191505092915050565b600061265582612fd1565b61265f8185612fed565b935061266f8185602086016131a1565b6126788161336d565b840191505092915050565b600061268e82612fd1565b6126988185612ffe565b93506126a88185602086016131a1565b80840191505092915050565b600081546126c1816131d4565b6126cb8186612ffe565b945060018216600081146126e657600181146126f75761272a565b60ff1983168652818601935061272a565b61270085612fb1565b60005b8381101561272257815481890152600182019150602081019050612703565b838801955050505b50505092915050565b6000612740603283612fed565b915061274b8261337e565b604082019050919050565b6000612763602583612fed565b915061276e826133cd565b604082019050919050565b6000612786601c83612fed565b91506127918261341c565b602082019050919050565b60006127a9600a83612ffe565b91506127b482613445565b600a82019050919050565b60006127cc602483612fed565b91506127d78261346e565b604082019050919050565b60006127ef601983612fed565b91506127fa826134bd565b602082019050919050565b6000612812606383612ffe565b915061281d826134e6565b606382019050919050565b6000612835600b83612ffe565b915061284082613581565b600b82019050919050565b6000612858602c83612fed565b9150612863826135aa565b604082019050919050565b600061287b600d83612ffe565b9150612886826135f9565b600d82019050919050565b600061289e603883612fed565b91506128a982613622565b604082019050919050565b60006128c1602a83612fed565b91506128cc82613671565b604082019050919050565b60006128e4602983612fed565b91506128ef826136c0565b604082019050919050565b6000612907602e83612fed565b91506129128261370f565b604082019050919050565b600061292a600283612ffe565b91506129358261375e565b600282019050919050565b600061294d602083612fed565b915061295882613787565b602082019050919050565b6000612970603183612fed565b915061297b826137b0565b604082019050919050565b6000612993602c83612fed565b915061299e826137ff565b604082019050919050565b60006129b6602f83612fed565b91506129c18261384e565b604082019050919050565b60006129d9600a83612ffe565b91506129e48261389d565b600a82019050919050565b60006129fc602683612fed565b9150612a07826138c6565b604082019050919050565b6000612a1f602183612fed565b9150612a2a82613915565b604082019050919050565b6000612a42600a83612ffe565b9150612a4d82613964565b600a82019050919050565b6000612a65601d83612ffe565b9150612a708261398d565b601d82019050919050565b6000612a88603183612fed565b9150612a93826139b6565b604082019050919050565b612aa781613188565b82525050565b6000612ab98284612683565b915081905092915050565b6000612ad08285612683565b9150612adc8284612683565b91508190509392505050565b6000612af48286612683565b9150612b008285612683565b9150612b0c8284612683565b9150819050949350505050565b6000612b2582856126b4565b9150612b318284612683565b9150612b3c8261286e565b91508190509392505050565b6000612b538261279c565b9150612b5f8284612683565b915081905092915050565b6000612b7582612828565b9150612b818284612683565b915081905092915050565b6000612b97826129cc565b9150612ba38285612683565b9150612bae82612805565b9150612bba8284612683565b9150612bc58261291d565b91508190509392505050565b6000612bdc82612a35565b9150612be88284612683565b915081905092915050565b6000612bfe82612a58565b9150612c0a8284612683565b915081905092915050565b6000602082019050612c2a60008301846125f3565b92915050565b6000608082019050612c4560008301876125f3565b612c5260208301866125f3565b612c5f6040830185612a9e565b8181036060830152612c718184612611565b905095945050505050565b6000604082019050612c9160008301856125f3565b612c9e6020830184612a9e565b9392505050565b6000602082019050612cba6000830184612602565b92915050565b60006020820190508181036000830152612cda818461264a565b905092915050565b60006060820190508181036000830152612cfc818661264a565b9050612d0b6020830185612a9e565b612d1860408301846125f3565b949350505050565b60006020820190508181036000830152612d3981612733565b9050919050565b60006020820190508181036000830152612d5981612756565b9050919050565b60006020820190508181036000830152612d7981612779565b9050919050565b60006020820190508181036000830152612d99816127bf565b9050919050565b60006020820190508181036000830152612db9816127e2565b9050919050565b60006020820190508181036000830152612dd98161284b565b9050919050565b60006020820190508181036000830152612df981612891565b9050919050565b60006020820190508181036000830152612e19816128b4565b9050919050565b60006020820190508181036000830152612e39816128d7565b9050919050565b60006020820190508181036000830152612e59816128fa565b9050919050565b60006020820190508181036000830152612e7981612940565b9050919050565b60006020820190508181036000830152612e9981612963565b9050919050565b60006020820190508181036000830152612eb981612986565b9050919050565b60006020820190508181036000830152612ed9816129a9565b9050919050565b60006020820190508181036000830152612ef9816129ef565b9050919050565b60006020820190508181036000830152612f1981612a12565b9050919050565b60006020820190508181036000830152612f3981612a7b565b9050919050565b6000602082019050612f556000830184612a9e565b92915050565b6000612f65612f76565b9050612f718282613206565b919050565b6000604051905090565b600067ffffffffffffffff821115612f9b57612f9a61333e565b5b612fa48261336d565b9050602081019050919050565b60008190508160005260206000209050919050565b600081519050919050565b600081519050919050565b600082825260208201905092915050565b600082825260208201905092915050565b600081905092915050565b600061301482613188565b915061301f83613188565b9250827fffffffffffffffffffffffffffffffffffffffffffffffffffffffffffffffff03821115613054576130536132b1565b5b828201905092915050565b600061306a82613188565b915061307583613188565b925082613085576130846132e0565b5b828204905092915050565b600061309b82613188565b91506130a683613188565b9250817fffffffffffffffffffffffffffffffffffffffffffffffffffffffffffffffff04831182151516156130df576130de6132b1565b5b828202905092915050565b60006130f582613188565b915061310083613188565b925082821015613113576131126132b1565b5b828203905092915050565b600061312982613168565b9050919050565b60008115159050919050565b60007fffffffff0000000000000000000000000000000000000000000000000000000082169050919050565b600073ffffffffffffffffffffffffffffffffffffffff82169050919050565b6000819050919050565b82818337600083830152505050565b60005b838110156131bf5780820151818401526020810190506131a4565b838111156131ce576000848401525b50505050565b600060028204905060018216806131ec57607f821691505b60208210811415613200576131ff61330f565b5b50919050565b61320f8261336d565b810181811067ffffffffffffffff8211171561322e5761322d61333e565b5b80604052505050565b600061324282613188565b91507fffffffffffffffffffffffffffffffffffffffffffffffffffffffffffffffff821415613275576132746132b1565b5b600182019050919050565b600061328b82613188565b915061329683613188565b9250826132a6576132a56132e0565b5b828206905092915050565b7f4e487b7100000000000000000000000000000000000000000000000000000000600052601160045260246000fd5b7f4e487b7100000000000000000000000000000000000000000000000000000000600052601260045260246000fd5b7f4e487b7100000000000000000000000000000000000000000000000000000000600052602260045260246000fd5b7f4e487b7100000000000000000000000000000000000000000000000000000000600052604160045260246000fd5b6000601f19601f8301169050919050565b7f4552433732313a207472616e7366657220746f206e6f6e20455243373231526560008201527f63656976657220696d706c656d656e7465720000000000000000000000000000602082015250565b7f4552433732313a207472616e736665722066726f6d20696e636f72726563742060008201527f6f776e6572000000000000000000000000000000000000000000000000000000602082015250565b7f4552433732313a20746f6b656e20616c7265616479206d696e74656400000000600082015250565b7f54484952445f574f524400000000000000000000000000000000000000000000600082015250565b7f4552433732313a207472616e7366657220746f20746865207a65726f2061646460008201527f7265737300000000000000000000000000000000000000000000000000000000602082015250565b7f4552433732313a20617070726f766520746f2063616c6c657200000000000000600082015250565b7f222c20226465736372697074696f6e223a20224120686967686c79206163636c60008201527f61696d656420636f6c6c656374696f6e206f6620737175617265732e222c202260208201527f696d616765223a2022646174613a696d6167652f7376672b786d6c3b6261736560408201527f36342c0000000000000000000000000000000000000000000000000000000000606082015250565b7f5345434f4e445f574f5244000000000000000000000000000000000000000000600082015250565b7f4552433732313a206f70657261746f7220717565727920666f72206e6f6e657860008201527f697374656e7420746f6b656e0000000000000000000000000000000000000000602082015250565b7f3c2f746578743e3c2f7376673e00000000000000000000000000000000000000600082015250565b7f4552433732313a20617070726f76652063616c6c6572206973206e6f74206f7760008201527f6e6572206e6f7220617070726f76656420666f7220616c6c0000000000000000602082015250565b7f4552433732313a2062616c616e636520717565727920666f7220746865207a6560008201527f726f206164647265737300000000000000000000000000000000000000000000602082015250565b7f4552433732313a206f776e657220717565727920666f72206e6f6e657869737460008201527f656e7420746f6b656e0000000000000000000000000000000000000000000000602082015250565b7f45524337323155524953746f726167653a2055524920736574206f66206e6f6e60008201527f6578697374656e7420746f6b656e000000000000000000000000000000000000602082015250565b7f227d000000000000000000000000000000000000000000000000000000000000600082015250565b7f4552433732313a206d696e7420746f20746865207a65726f2061646472657373600082015250565b7f45524337323155524953746f726167653a2055524920717565727920666f722060008201527f6e6f6e6578697374656e7420746f6b656e000000000000000000000000000000602082015250565b7f4552433732313a20617070726f76656420717565727920666f72206e6f6e657860008201527f697374656e7420746f6b656e0000000000000000000000000000000000000000602082015250565b7f4552433732314d657461646174613a2055524920717565727920666f72206e6f60008201527f6e6578697374656e7420746f6b656e0000000000000000000000000000000000602082015250565b7f7b226e616d65223a202200000000000000000000000000000000000000000000600082015250565b7f596f752068617665206d696e74656420746865206d617820616d6f756e74206f60008201527f66204e4654730000000000000000000000000000000000000000000000000000602082015250565b7f4552433732313a20617070726f76616c20746f2063757272656e74206f776e6560008201527f7200000000000000000000000000000000000000000000000000000000000000602082015250565b7f46495253545f574f524400000000000000000000000000000000000000000000600082015250565b7f646174613a6170706c69636174696f6e2f6a736f6e3b6261736536342c000000600082015250565b7f4552433732313a207472616e736665722063616c6c6572206973206e6f74206f60008201527f776e6572206e6f7220617070726f766564000000000000000000000000000000602082015250565b613a0e8161311e565b8114613a1957600080fd5b50565b613a2581613130565b8114613a3057600080fd5b50565b613a3c8161313c565b8114613a4757600080fd5b50565b613a5381613188565b8114613a5e57600080fd5b5056fe416e204e465420772f20494420257320686173206265656e206d696e74656420746f2025734142434445464748494a4b4c4d4e4f505152535455565758595a6162636465666768696a6b6c6d6e6f707172737475767778797a303132333435363738392b2fa26469706673582212207d3e5fa6eef0bb8246eb36d9709ef468f8d2ac5db6a908c2c4a74431475e30f864736f6c634300080400333c73766720786d6c6e733d27687474703a2f2f7777772e77332e6f72672f323030302f73766727207072657365727665417370656374526174696f3d27784d696e594d696e206d656574272076696577426f783d273020302033353020333530273e3c7374796c653e2e62617365207b2066696c6c3a2077686974653b20666f6e742d66616d696c793a2073657269663b20666f6e742d73697a653a20323470783b207d3c2f7374796c653e3c726563742077696474683d273130302527206865696768743d2731303025272066696c6c3d27626c61636b27202f3e3c7465787420783d273530252720793d273530252720636c6173733d27626173652720646f6d696e616e742d626173656c696e653d276d6964646c652720746578742d616e63686f723d276d6964646c65273e",
  "linkReferences": {},
  "deployedLinkReferences": {}
}